:100000000C945E000C9486000C9486000C94860080
:100010000C9486000C9486000C9486000C94860048
:100020000C9486000C9486000C9486000C94860038
:100030000C9486000C9486000C9486000C94860028
:100040000C94A5040C9486000C94A2070C94E5076C
:100050000C9486000C9486000C9486000C94530338
:100060000C9486000C94860000000007000201003A
:100070000003040600000000000000000102040864
:100080001020408001020408102001020408102002
:10009000040404040404040402020202020203032E
:1000A0000303030300000000250028002B000000CC
:1000B0000000240027002A005B04A10811241FBEB1
:1000C000CFEFD8E0DEBFCDBF11E0A0E0B1E0EAE6BF
:1000D000F2E102C005900D92AE37B107D9F713E0F7
:1000E000AEE7B1E001C01D92A733B107E1F710E020
:1000F000CCEBD0E004C02297FE010E942F09C83B40
:10010000D107C9F70E94E5050C9433090C9400004F
:1001100081E00895FC01258130E02250310950E052
:1001200040E0652F70E06217730764F4FC01E60F8E
:10013000F71F6681762F7F7062956F70670F460F8D
:100140005F5FEFCF50E04A505109FC01E20FF31F0F
:10015000268130E081E04217530709F080E00895DE
:10016000DC0117962C912F7751E02C3619F050E0D6
:100170004FE001C047E020E0322F3695FC01E30F4D
:10018000F11DE68120FF03C0EF70F0E006C0F0E053
:1001900034E0F595E7953A95E1F7E55DFE4F30815E
:1001A000511101C03195430F2F5F283029F74F704F
:1001B00050E0DC011A96EC91F0E084E0F595E795CB
:1001C0008A95E1F7E55DFE4F208130E081E042173E
:1001D000530709F080E00895FC01258130E02150AB
:1001E000310960E070E0472F50E0FC0142175307EF
:1001F0009CF4E40FF51F46816427E8E0462F50E0A9
:10020000440F551F67FF02C061E301C060E064272F
:10021000E150A1F77F5FE7CFE20FF31F81E0968106
:10022000691380E00895FC012681207F203C29F499
:100230009781907381E0903309F080E00895CF9327
:10024000DF93EC018C81882319F0813049F03BC0A9
:10025000625C714064367105B0F581E08C831DC02D
:10026000CB018950974087329A40C8F4683988E0BA
:10027000780738F4E881F9810480F581E02D60E0A9
:1002800009C0693D7E40F8F0E881F9810480F5817C
:10029000E02D61E0CE0109951C8280E015C08A81C5
:1002A000843288F065537142673E734060F49D81EB
:1002B000FE01E90FF11D86818295807F86839F5F15
:1002C0009D8381E001C08FEFDF91CF910895CF939F
:1002D000DF93EC01CB0180599140813B944008F0C1
:1002E0003FC08C818230A1F0853039F0811138C057
:1002F00068357240A8F585E009C065587340673CD1
:10030000710570F58B818F5F8B8382E08C8322C0B7
:10031000683522E0720750F48B818B3008F1E88158
:10032000F9810480F581E02D61E00BC067347540F0
:10033000B8F08BE08B83E881F9810480F581E02DB2
:1003400060E0CE0109958A81883231F48E81807F08
:10035000803321F480E005C08833E1F781E001C0FB
:100360008FEFDF91CF910895CF93DF93EC019B0145
:100370008091E4019091E501FC013196F093E50153
:10038000E093E40162E370E00E94F708880F991F90
:1003900080589E4FDC012D933C93F39720F01092F0
:1003A000E5011092E4012533B8E03B07A0F52032C7
:1003B00083E0380728F48A81843268F181E02CC018
:1003C0008C818230C9F0853039F0811124C02C3401
:1003D000344008F582E01CC02C34B4E03B07D0F375
:1003E00029303740C0F0E881F9810480F581E02DA3
:1003F00060E0CE0109950DC02C34344060F4E881F2
:10040000F9810480F581E02D61E0CE01099585E058
:100410008C8380E001C08FEFDF91CF910895FC01C4
:100420008581DF01A80FB11D16968C911697880F54
:10043000862B16968C9382818F5F828390E0B3E047
:1004400095958795BA95E1F78583893128F01382D0
:10045000158212821482089585E084830895FC0138
:10046000828180FD12C09581DF01A90FB11D169612
:100470002C91169730E035952795662311F090E87A
:1004800001C090E0292B16962C938F5F828390E019
:1004900024E0959587952A95E1F7858385E0848307
:1004A0000895FC018581DF01A80FB11D16968C917E
:1004B000169790E095958795662311F020E801C086
:1004C00020E0822B16968C9382818F5F828390E04E
:1004D00053E0959587955A95E1F78583893128F002
:1004E0001382158212821482089585E08483089510
:1004F000CF93DF93EC018C81863091F0E881F98114
:100500000190F081E02DCE0109958F3F29F08130D7
:1005100039F486E08C8304C01B821D821A821C82FF
:1005200081E09C81963009F080E0DF91CF910895C1
:10053000DC0113962C911397622713966C931397F3
:10054000ED91FC910480F581E02D0994CF93DF9328
:10055000EC01CB01885C9109883E934008F068C0AB
:1005600081E06C3B724008F480E09C819130B1F0F6
:1005700018F0953061F018C09B81882319F09F5FB7
:100580009B8312C0903208F453C01B8202C08111B9
:1005900003C081E08C8308C061E003C0811148C0C2
:1005A00060E0CE010E9498028D818230D1F58E816B
:1005B0008A3131F48F818F7E893899F580EB30C094
:1005C0008A3249F48F81893111F488EB29C08D3149
:1005D00041F588EA25C08A3539F48F818D3571F36C
:1005E0008D36F9F480EC1CC0982F9F7E9A3829F440
:1005F0009F819C3E49F480ED13C08A3D29F48F8190
:10060000883769F480E90CC08A3E49F48F818C34C4
:1006100011F488E805C08C3721F480EF01C080EA2E
:100620008F8F81E02A819F8D291719F080E001C00A
:100630008FEFDF91CF910895CF93DF93EC01CB0142
:10064000885C9109883E934050F581E06C3B724094
:1006500008F480E09C819130B1F018F0953061F0A1
:1006600018C09B81811103C09F5F9B8312C0903291
:10067000B0F081E08B8305C0811103C081E08C83E1
:1006800008C061E003C081110AC060E0CE010E9491
:10069000980281E09A81903519F080E001C08FEFD7
:1006A000DF91CF9108951F920F920FB60F921124F0
:1006B0002F933F934F935F936F937F938F939F936A
:1006C000AF93BF93EF93FF930E94EF0420917E01BD
:1006D00030917F01621B730B7093E7016093E60119
:1006E0008091E6019091E701820F931F90937F0123
:1006F00080937E01FF91EF91BF91AF919F918F9178
:100700007F916F915F914F913F912F910F900FBE0D
:100710000F901F901895BF92CF92DF92EF92FF92A9
:100720000F931F93CF93DF938C01EB01E881F98145
:100730000280F381E02DCB0109958823B9F1BD80BA
:10074000B8018DE892E00E94300660E28DE892E008
:100750000E9432067E0186E0E80EF11C8701802FA0
:100760008E198B15D8F46801F80161918F0170E042
:10077000E4E075956795EA95E1F740E150E08DE892
:1007800092E00E940207F60160816F7070E040E124
:1007900050E08DE892E00E940207E1CF8DE892E000
:1007A0000E9439061B821D821A821C82DF91CF9122
:1007B0001F910F91FF90EF90DF90CF90BF90089521
:1007C00040E052EC61E070E08DE892E00E94200889
:1007D00060E071E08DE892E00E944D0660E08FE0FD
:1007E0000E94760561E08FE00E94AF0588E580BF3A
:1007F000EAE7F0E080818F778083EBE7F0E08081AB
:100800008064808381E080937C000895CF93DF93A0
:10081000F894C091E601D091E7011092E70110929F
:10082000E6017894209709F443C0BE0184E692E083
:100830000E947802882331F064E672E082E191E060
:100840000E948B03BE0185E492E00E947802882317
:1008500031F065E472E087E191E00E948B03BE0114
:1008600086E292E00E947802882331F066E272E02C
:100870008CE191E00E948B03BE0187E092E00E9430
:100880007802882331F067E072E081E291E00E9413
:100890008B03BE0188EE91E00E947802882341F02C
:1008A00068EE71E086E291E0DF91CF910C948B03CA
:1008B000DF91CF9108951092670210926902109211
:1008C0006602109268028FE391E090936502809334
:1008D000640280EA809383021092480210924A02D6
:1008E000109247021092490289E491E090934602E7
:1008F000809345021092290210922B021092280236
:1009000010922A0283E591E09093270280932602B9
:1009100010920A0210920C021092090210920B021D
:100920008DE591E090930802809307021092EB010D
:100930001092ED011092EA011092EC0187E691E02D
:100940009093E9018093E80108951F920F920FB6EA
:100950000F9211242F933F938F939F93AF93BF9345
:100960008091850290918602A0918702B0918802C1
:100970003091840223E0230F2D3720F40196A11D2E
:10098000B11D05C026E8230F0296A11DB11D2093BD
:1009900084028093850290938602A0938702B0938D
:1009A00088028091890290918A02A0918B02B09175
:1009B0008C020196A11DB11D8093890290938A0239
:1009C000A0938B02B0938C02BF91AF919F918F91B6
:1009D0003F912F910F900FBE0F901F9018953FB72A
:1009E000F8948091890290918A02A0918B02B09133
:1009F0008C0226B5A89B05C02F3F19F00196A11DBA
:100A0000B11D3FBF6627782F892F9A2F620F711D66
:100A1000811D911D42E0660F771F881F991F4A951F
:100A2000D1F70895789484B5826084BD84B58160DF
:100A300084BD85B5826085BD85B5816085BDEEE6E6
:100A4000F0E0808181608083E1E8F0E010828081C5
:100A500082608083808181608083E0E8F0E0808133
:100A600081608083E1EBF0E0808184608083E0EB53
:100A7000F0E0808181608083EAE7F0E0808184603B
:100A80008083808182608083808181608083808197
:100A9000806880831092C1000895833081F028F42B
:100AA000813099F08230A1F008958630A9F0873026
:100AB000B9F08430D1F4809180008F7D03C08091A3
:100AC00080008F7780938000089584B58F7702C06F
:100AD00084B58F7D84BD08958091B0008F7703C069
:100AE0008091B0008F7D8093B0000895CF93DF9305
:100AF00090E0FC01E458FF4F2491FC01E057FF4FC8
:100B00008491882349F190E0880F991FFC01E255F8
:100B1000FF4FA591B4918C559F4FFC01C591D49185
:100B20009FB7611108C0F8948C91209582238C9313
:100B3000888182230AC0623051F4F8948C91322F5C
:100B4000309583238C938881822B888304C0F8940A
:100B50008C91822B8C939FBFDF91CF9108950F933F
:100B60001F93CF93DF931F92CDB7DEB7282F30E0CE
:100B7000F901E859FF4F8491F901E458FF4F1491AE
:100B8000F901E057FF4F04910023C9F0882321F0B9
:100B900069830E944D056981E02FF0E0EE0FFF1F91
:100BA000EC55FF4FA591B4919FB7F8948C916111CA
:100BB00003C01095812301C0812B8C939FBF0F90A0
:100BC000DF91CF911F910F9108950E9412050E940D
:100BD000E003CCEDD7E00E9406042097E1F30E94E9
:100BE000DC07F9CFCF92DF92EF92FF920F931F9322
:100BF000CF93DF936C017A01EB01E60EF71E00E064
:100C000010E0CE15DF0561F06991D601ED91FC9100
:100C10000190F081E02DC6010995080F191FF1CF51
:100C2000C801DF91CF911F910F91FF90EF90DF905E
:100C3000CF9008956115710581F0DB010D900020C2
:100C4000E9F7AD0141505109461B570BDC01ED910D
:100C5000FC910280F381E02D099480E090E00895FA
:100C60000C941A06DC01ED91FC910190F081E02DCD
:100C700009940F931F93CF93DF93EC016DE00E94D3
:100C800032068C016AE0CE010E943206800F911F6D
:100C9000DF91CF911F910F9108950F931F93CF93E1
:100CA000DF93EC010E941A068C01CE010E943906E6
:100CB000800F911FDF91CF911F910F9108958F9217
:100CC0009F92AF92BF92CF92DF92EF92FF920F93DB
:100CD0001F93CF93DF93CDB7DEB7A1970FB6F894EC
:100CE000DEBF0FBECDBF7C01C42EE52FCB01D22EBF
:100CF00019A221E02D1510F02AE0D22E8E010F5DF1
:100D00001F4F8D2C912CA12CB12C6C2D7E2FA50169
:100D100094010E940B098C2DD29E80191124015040
:100D200011098A3014F4805D01C0895CF801808368
:100D3000211531054105510521F0C22EE32FCA01CD
:100D4000E4CFB801C7010E941A06A1960FB6F89425
:100D5000DEBF0FBECDBFDF91CF911F910F91FF90EE
:100D6000EF90DF90CF90BF90AF909F908F900895BD
:100D7000CF92DF92EF92FF920F931F93CF93DF9367
:100D8000EC016A017B012115310579F4E881F981D3
:100D90000190F081E02D642FDF91CF911F910F9191
:100DA000FF90EF90DF90CF9009942A303105E9F45D
:100DB00077FF1AC06DE20E9432068C014427552746
:100DC000BA014C195D096E097F092AE0CE010E9423
:100DD0005F06800F911FDF91CF911F910F91FF90C0
:100DE000EF90DF90CF9008952AE0B701A601CE01E1
:100DF000DF91CF911F910F91FF90EF90DF90CF90F7
:100E00000C945F069A01AB01662757FD6095762F1B
:100E10000C94B806FC0124853585F901E05CFF4F90
:100E200080819181F901EE5BFF4F20813181821B2E
:100E3000930B8F7399270895FC0184859585FC0198
:100E4000E05CFF4F40815181FC01EE5BFF4F208150
:100E500031814217530741F00190F081E02DE80FF6
:100E6000F91F808190E008958FEF9FEF0895FC01B6
:100E700084859585FC01E05CFF4F40815181FC0138
:100E8000EE5BFF4F208131814217530779F0A0813B
:100E9000B181A80FB91F8C91208131812F5F3F4F05
:100EA0002F7333273183208390E008958FEF9FEFD6
:100EB0000895FC0181A1882329F0A489B5898C912A
:100EC00086FFFBCF11A20895CF93DF93FC01268507
:100ED0003785D901A05CBF4F8D919C9111970196E8
:100EE0008F739927E901CE5BDF4F488159818417C1
:100EF0009507D9F30D90BC91A02DA20FB31F6C9351
:100F0000A685B785A05CBF4F11969C938E93A6894A
:100F1000B7892C9181E090E0078C02C0880F991F5F
:100F20000A94E2F7282B2C9381E081A30488F589A9
:100F3000E02D80818064808381E090E0DF91CF911B
:100F4000089508951F920F920FB60F9211242F93B8
:100F50003F934F938F939F93EF93FF938091C000A4
:100F600082FD1CC04091C6008091330390913403F0
:100F700001968F739927209135033091360382179C
:100F8000930771F0E0913303F0913403ED50FD4F7E
:100F90004083909334038093330302C08091C60052
:100FA000FF91EF919F918F914F913F912F910F90D2
:100FB0000FBE0F901F9018958DE892E00E940A07CF
:100FC000892B11F00C94A10708951F920F920FB670
:100FD0000F9211242F933F938F939F93EF93FF933F
:100FE0002091EF023091F0028091F1029091F20293
:100FF0002817390731F48091C1008F7D8093C1009B
:1010000014C0E091F102F091F202E155FD4F208110
:101010008091F1029091F20201968F73992790933B
:10102000F2028093F1022093C600FF91EF919F910D
:101030008F913F912F910F900FBE0F901F90189599
:10104000CF92DF92EF92FF92CF93DF93EC016A0190
:101050007B01411581EE580761057105F9F0EC89B6
:10106000FD8981E090E008A002C0880F991F0A94D2
:10107000E2F7808360E079E08DE390E0A7019601DC
:101080000E940B0921503109410951095695479594
:1010900037952795211580E1380798F0EC89FD896F
:1010A000108260E874E88EE190E0A70196010E944A
:1010B0000B0921503109410951095695479537953A
:1010C0002795E889F9893083EA89FB89208319A269
:1010D000EE89FF89408181E090E09C010C8C02C088
:1010E000220F331F0A94E2F7422B4083EE89FF89D7
:1010F00040819C010D8C02C0220F331F0A94E2F73D
:10110000422B4083EE89FF8940819C010E8C02C0F6
:10111000220F331F0A94E2F7422B4083EE89FF89A6
:1011200020810F8C02C0880F991F0A94E2F78095E6
:1011300082238083DF91CF91FF90EF90DF90CF905B
:1011400008951092900210928F0288EE93E0A0E032
:10115000B0E08093910290939202A0939302B09397
:10116000940281E791E090938E0280938D0283EF49
:1011700092E090939A02809399028FEA92E0909382
:101180009C0280939B0285EC90E090939E0280935A
:101190009D0284EC90E09093A00280939F0280ECEB
:1011A00090E09093A2028093A10281EC90E0909352
:1011B000A4028093A30282EC90E09093A602809315
:1011C000A50286EC90E09093A8028093A70284E0A9
:1011D0008093A90283E08093AA0287E08093AB0208
:1011E00085E08093AC0281E08093AD020895AA1B54
:1011F000BB1B51E107C0AA1FBB1FA617B70710F002
:10120000A61BB70B881F991F5A95A9F78095909533
:10121000BC01CD010895A1E21A2EAA1BBB1BFD0142
:101220000DC0AA1FBB1FEE1FFF1FA217B307E407C5
:10123000F50720F0A21BB30BE40BF50B661F771F1D
:10124000881F991F1A9469F76095709580959095FD
:101250009B01AC01BD01CF010895EE0FFF1F05906A
:0A126000F491E02D0994F894FFCFFB
:10126A000A5B576561746865725265616465725D8F
:10127A000A004F535632004F5356330056454E54C8
:10128A000046494E45004D414E44000008040C02F8
:10129A000A060E0109050D030B070F00000000A640
:1012AA00028A002F02000000001C0388005102007D
:1012BA000000001F01B0000F02000000006701ECEF
:1012CA00000F0200000000B40113010F0200000029
:0E12DA00006407F2050A0737071C07590700D2
:00000001FF
