:100000000C945E000C9486000C9486000C94860080
:100010000C9486000C9486000C9486000C94860048
:100020000C9486000C9486000C9486000C94860038
:100030000C9486000C9486000C9486000C94860028
:100040000C9429040C9486000C9426070C946907E0
:100050000C9486000C9486000C9486000C94F30299
:100060000C9486000C94860000000007000201003A
:100070000003040600000000000000000102040864
:100080001020408001020408102001020408102002
:10009000040404040404040402020202020203032E
:1000A0000303030300000000250028002B000000CC
:1000B0000000240027002A00ED03250811241FBE9C
:1000C000CFEFD8E0DEBFCDBF11E0A0E0B1E0E2E7C6
:1000D000F1E102C005900D92AE36B107D9F713E0F9
:1000E000AEE6B1E001C01D92A830B107E1F710E023
:1000F000CCEBD0E004C02297FE010E94B308C83BBD
:10010000D107C9F70E9469050C94B7080C94000048
:10011000FC01258130E02250310950E040E0652F9C
:1001200070E06217730764F4FC01E60FF71F668145
:10013000762F7F7062956F70670F460F5F5FEFCF0E
:1001400050E04A505109FC01E20FF31F268130E0D4
:1001500081E04217530709F080E00895DC0117960B
:100160002C912F7751E02C3619F050E04FE001C070
:1001700047E020E0322F3695FC01E30FF11DE681C8
:1001800020FF03C0EF70F0E006C0F0E034E0F5952A
:10019000E7953A95E1F7EA5DFE4F3081511101C0D4
:1001A0003195430F2F5F283029F74F7050E0DC0165
:1001B0001A96EC91F0E084E0F595E7958A95E1F7E1
:1001C000EA5DFE4F208130E081E04217530709F0DD
:1001D00080E00895FC01258130E02150310960E084
:1001E00070E0472F50E0FC01421753079CF4E40FE6
:1001F000F51F46816427E8E0462F50E0440F551F65
:1002000067FF02C061E301C060E06427E150A1F72D
:100210007F5FE7CFE20FF31F81E09681691380E0F3
:100220000895FC012681207F203C29F4978190735A
:1002300081E0903309F080E00895CF93DF93EC01E3
:100240008C81882319F0813049F03BC0625C714099
:1002500064367105B0F581E08C831DC0CB018950F7
:10026000974087329A40C8F4683988E0780738F4B4
:10027000E881F9810480F581E02D60E009C0693DE5
:100280007E40F8F0E881F9810480F581E02D61E09D
:10029000CE0109951C8280E015C08A81843288F0E5
:1002A00065537142673E734060F49D81FE01E90F22
:1002B000F11D86818295807F86839F5F9D8381E08B
:1002C00001C08FEFDF91CF910895CF93DF93EC01C1
:1002D000CB0180599140813B944008F03FC08C8114
:1002E0008230A1F0853039F0811138C06835724014
:1002F000A8F585E009C065587340673C710570F545
:100300008B818F5F8B8382E08C8322C0683522E0F3
:10031000720750F48B818B3008F1E881F9810480F9
:10032000F581E02D61E00BC067347540B8F08BE0DB
:100330008B83E881F9810480F581E02D60E0CE01B6
:1003400009958A81883231F48E81807F803321F44F
:1003500080E005C08833E1F781E001C08FEFDF91D5
:10036000CF910895CF93DF93EC019B018091D4014D
:100370009091D501FC013196F093D501E093D40121
:1003800062E370E00E947B08880F991F80599E4F9E
:10039000DC012D933C93F39720F01092D50110923D
:1003A000D4012533B8E03B07A0F5203283E03807BD
:1003B00028F48A81843268F181E02CC08C818230FB
:1003C000C9F0853039F0811124C02C34344008F54F
:1003D00082E01CC02C34B4E03B07D0F32930374016
:1003E000C0F0E881F9810480F581E02D60E0CE0164
:1003F00009950DC02C34344060F4E881F981048003
:10040000F581E02D61E0CE01099585E08C8380E0E7
:1004100001C08FEFDF91CF910895FC018581DF014D
:10042000A80FB11D16968C911697880F862B1696DD
:100430008C9382818F5F828390E0B3E0959587955E
:10044000BA95E1F78583893128F0138215821282EB
:100450001482089585E084830895FC01828180FDE3
:1004600012C09581DF01A90FB11D16962C91169728
:1004700030E035952795662311F090E801C090E0B3
:10048000292B16962C938F5F828390E024E095951C
:1004900087952A95E1F7858385E084830895CF9336
:1004A000DF93EC018C81863091F0E881F981019035
:1004B000F081E02DCE0109958F3F29F0813039F48C
:1004C00086E08C8304C01B821D821A821C8281E01C
:1004D0009C81963009F080E0DF91CF910895DC0196
:1004E00013962C911397622713966C931397ED91A3
:1004F000FC910480F581E02D0994CF93DF93EC010A
:10050000CB01885C9109883E934008F068C081E087
:100510006C3B724008F480E09C819130B1F018F09F
:10052000953061F018C09B81882319F09F5F9B83F1
:1005300012C0903208F453C01B8202C0811103C064
:1005400081E08C8308C061E003C0811148C060E095
:10055000CE010E946F028D818230D1F58E818A3169
:1005600031F48F818F7E893899F580EB30C08A32E3
:1005700049F48F81893111F488EB29C08D3141F51F
:1005800088EA25C08A3539F48F818D3571F38D362F
:10059000F9F480EC1CC0982F9F7E9A3829F49F8133
:1005A0009C3E49F480ED13C08A3D29F48F81883741
:1005B00069F480E90CC08A3E49F48F818C3411F4CF
:1005C00088E805C08C3721F480EF01C080EA8F8F66
:1005D00081E02A819F8D291719F080E001C08FEFFB
:1005E000DF91CF9108951F920F920FB60F921124B1
:1005F0002F933F934F935F936F937F938F939F932B
:10060000AF93BF93EF93FF930E94730420916E0109
:1006100030916F01621B730B7093D7016093D60109
:100620008091D6019091D701820F931F90936F0113
:1006300080936E01FF91EF91BF91AF919F918F9148
:100640007F916F915F914F913F912F910F900FBECE
:100650000F901F901895BF92CF92DF92EF92FF926A
:100660000F931F93CF93DF938C01EB01E881F98106
:100670000280F381E02DCB0109958823B9F1BD807B
:10068000B8018EE592E00E94B40560E28EE592E04A
:100690000E94B6057E0186E0E80EF11C8701802FDE
:1006A0008E198B15D8F46801F80161918F0170E003
:1006B00054E0759567955A95E1F740E150E08EE575
:1006C00092E00E948606F60160816F7070E040E162
:1006D00050E08EE592E00E948606E1CF8EE592E042
:1006E0000E94BD051B821D821A821C82DF91CF9160
:1006F0001F910F91FF90EF90DF90CF90BF900895E2
:1007000040E052EC61E070E08EE592E00E94A407C8
:1007100060E071E08EE592E00E94D10560E08FE03C
:100720000E94FA0461E08FE00E94330588E580BFF3
:10073000EAE7F0E080818F778083EBE7F0E080816B
:100740008064808381E080937C000895CF93DF9361
:10075000F894C091D601D091D7011092D701109290
:10076000D60178942097B1F1BE0185E392E00E9412
:100770004F02882331F065E372E082E191E00E944C
:100780002B03BE0186E192E00E944F02882331F0E4
:1007900066E172E087E191E00E942B03BE0187EFE2
:1007A00091E00E944F02882331F067EF71E08CE105
:1007B00091E00E942B03BE0188ED91E00E944F0260
:1007C000882341F068ED71E081E291E0DF91CF9103
:1007D0000C942B03DF91CF91089510923802109260
:1007E0003A0210923702109239028AE391E0909314
:1007F00036028093350280EA8093540210921902E7
:1008000010921B021092180210921A0284E491E0D6
:1008100090931702809316021092FA011092FC0135
:100820001092F9011092FB018EE491E09093F8018F
:100830008093F7011092DB011092DD011092DA0132
:100840001092DC0188E591E09093D9018093D80162
:1008500008951F920F920FB60F9211242F933F937A
:100860008F939F93AF93BF938091560290915702BD
:10087000A0915802B09159023091550223E0230F04
:100880002D3720F40196A11DB11D05C026E8230FC8
:100890000296A11DB11D209355028093560290939C
:1008A0005702A0935802B093590280915A02909136
:1008B0005B02A0915C02B0915D020196A11DB11D89
:1008C00080935A0290935B02A0935C02B0935D0206
:1008D000BF91AF919F918F913F912F910F900FBE3C
:1008E0000F901F9018953FB7F89480915A029091FD
:1008F0005B02A0915C02B0915D0226B5A89B05C089
:100900002F3F19F00196A11DB11D3FBF6627782F1B
:10091000892F9A2F620F711D811D911D42E0660F74
:10092000771F881F991F4A95D1F70895789484B549
:10093000826084BD84B5816084BD85B5826085BDDB
:1009400085B5816085BDEEE6F0E0808181608083C1
:10095000E1E8F0E0108280818260808380818160A4
:100960008083E0E8F0E0808181608083E1EBF0E06B
:10097000808184608083E0EBF0E08081816080830F
:10098000EAE7F0E0808184608083808182608083F8
:100990008081816080838081806880831092C10023
:1009A0000895833081F028F4813099F08230A1F0ED
:1009B00008958630A9F08730B9F08430D1F4809161
:1009C00080008F7D03C0809180008F7780938000AE
:1009D000089584B58F7702C084B58F7D84BD089556
:1009E0008091B0008F7703C08091B0008F7D80939D
:1009F000B0000895CF93DF9390E0FC01E458FF4FDF
:100A00002491FC01E057FF4F8491882349F190E045
:100A1000880F991FFC01E255FF4FA591B4918C55A9
:100A20009F4FFC01C591D4919FB7611108C0F89404
:100A30008C91209582238C93888182230AC0623016
:100A400051F4F8948C91322F309583238C938881C4
:100A5000822B888304C0F8948C91822B8C939FBF47
:100A6000DF91CF9108950F931F93CF93DF931F9240
:100A7000CDB7DEB7282F30E0F901E859FF4F849158
:100A8000F901E458FF4F1491F901E057FF4F049129
:100A90000023C9F0882321F069830E94D104698171
:100AA000E02FF0E0EE0FFF1FEC55FF4FA591B49142
:100AB0009FB7F8948C91611103C01095812301C0F8
:100AC000812B8C939FBF0F90DF91CF911F910F913E
:100AD00008950E9496040E948003C0E6D7E00E9419
:100AE000A6032097E1F30E946007F9CFCF92DF922F
:100AF000EF92FF920F931F93CF93DF936C017A01D4
:100B0000EB01E60EF71E00E010E0CE15DF0561F008
:100B10006991D601ED91FC910190F081E02DC60123
:100B20000995080F191FF1CFC801DF91CF911F91CF
:100B30000F91FF90EF90DF90CF90089561157105B0
:100B400081F0DB010D900020E9F7AD014150510922
:100B5000461B570BDC01ED91FC910280F381E02DE7
:100B6000099480E090E008950C949E05DC01ED91DD
:100B7000FC910190F081E02D09940F931F93CF9386
:100B8000DF93EC016DE00E94B6058C016AE0CE01B6
:100B90000E94B605800F911FDF91CF911F910F9199
:100BA00008950F931F93CF93DF93EC010E949E054E
:100BB0008C01CE010E94BD05800F911FDF91CF9166
:100BC0001F910F9108958F929F92AF92BF92CF92F3
:100BD000DF92EF92FF920F931F93CF93DF93CDB7E6
:100BE000DEB7A1970FB6F894DEBF0FBECDBF7C0174
:100BF000C42EE52FCB01D22E19A221E02D1510F025
:100C00002AE0D22E8E010F5D1F4F8D2C912CA12C2E
:100C1000B12C6C2D7E2FA50194010E948F088C2D84
:100C2000D29E80191124015011098A3014F4805D7C
:100C300001C0895CF801808321153105410551050A
:100C400021F0C22EE32FCA01E4CFB801C7010E94F0
:100C50009E05A1960FB6F894DEBF0FBECDBFDF9103
:100C6000CF911F910F91FF90EF90DF90CF90BF90A9
:100C7000AF909F908F900895CF92DF92EF92FF9266
:100C80000F931F93CF93DF93EC016A017B01211532
:100C9000310579F4E881F9810190F081E02D642F2C
:100CA000DF91CF911F910F91FF90EF90DF90CF9048
:100CB00009942A303105E9F477FF1AC06DE20E94E9
:100CC000B6058C0144275527BA014C195D096E09F8
:100CD0007F092AE0CE010E94E305800F911FDF917A
:100CE000CF911F910F91FF90EF90DF90CF900895DB
:100CF0002AE0B701A601CE01DF91CF911F910F919C
:100D0000FF90EF90DF90CF900C94E3059A01AB0138
:100D1000662757FD6095762F0C943C06FC012485D0
:100D20003585F901E05CFF4F80819181F901EE5B2F
:100D3000FF4F20813181821B930B8F739927089578
:100D4000FC0184859585FC01E05CFF4F4081518169
:100D5000FC01EE5BFF4F208131814217530741F0C8
:100D60000190F081E02DE80FF91F808190E0089557
:100D70008FEF9FEF0895FC0184859585FC01E05C71
:100D8000FF4F40815181FC01EE5BFF4F208131819B
:100D90004217530779F0A081B181A80FB91F8C9138
:100DA000208131812F5F3F4F2F7333273183208381
:100DB00090E008958FEF9FEF0895FC0181A18823B3
:100DC00029F0A489B5898C9186FFFBCF11A20895E3
:100DD000CF93DF93FC0126853785D901A05CBF4FF7
:100DE0008D919C91119701968F739927E901CE5BA4
:100DF000DF4F4881598184179507D9F30D90BC9135
:100E0000A02DA20FB31F6C93A685B785A05CBF4F22
:100E100011969C938E93A689B7892C9181E090E0DE
:100E2000078C02C0880F991F0A94E2F7282B2C9395
:100E300081E081A30488F589E02D8081806480832E
:100E400081E090E0DF91CF91089508951F920F9275
:100E50000FB60F9211242F933F934F938F939F932D
:100E6000EF93FF938091C00082FD1CC04091C600AB
:100E7000809104039091050301968F739927209127
:100E80000603309107038217930771F0E091040382
:100E9000F0910503EC53FD4F40839093050380933D
:100EA000040302C08091C600FF91EF919F918F9142
:100EB0004F913F912F910F900FBE0F901F9018955B
:100EC0008EE592E00E948E06892B11F00C94250786
:100ED00008951F920F920FB60F9211242F933F93F4
:100EE0008F939F93EF93FF932091C0023091C102A3
:100EF0008091C2029091C3022817390731F4809182
:100F0000C1008F7D8093C10014C0E091C202F091B6
:100F1000C302E058FD4F20818091C2029091C3022C
:100F200001968F7399279093C3028093C2022093F6
:100F3000C600FF91EF919F918F913F912F910F905C
:100F40000FBE0F901F901895CF92DF92EF92FF92F5
:100F5000CF93DF93EC016A017B01411581EE5807C5
:100F600061057105F9F0EC89FD8981E090E008A048
:100F700002C0880F991F0A94E2F7808360E079E04D
:100F80008DE390E0A70196010E948F08215031095E
:100F9000410951095695479537952795211580E1C7
:100FA000380798F0EC89FD89108260E874E88EE1DA
:100FB00090E0A70196010E948F0821503109410954
:100FC00051095695479537952795E889F9893083D2
:100FD000EA89FB89208319A2EE89FF89408181E09B
:100FE00090E09C010C8C02C0220F331F0A94E2F7A0
:100FF000422B4083EE89FF8940819C010D8C02C009
:10100000220F331F0A94E2F7422B4083EE89FF89B7
:1010100040819C010E8C02C0220F331F0A94E2F71C
:10102000422B4083EE89FF8920810F8C02C0880FFC
:10103000991F0A94E2F7809582238083DF91CF91F4
:10104000FF90EF90DF90CF90089510926102109280
:10105000600288EE93E0A0E0B0E08093620290939B
:101060006302A0936402B093650282E691E09093DC
:101070005F0280935E0284EC92E090936B02809317
:101080006A0280E892E090936D0280936C0285EC96
:1010900090E090936F0280936E0284EC90E09093C6
:1010A00071028093700280EC90E0909373028093C1
:1010B000720281EC90E0909375028093740282EC4E
:1010C00090E0909377028093760286EC90E0909384
:1010D00079028093780284E080937A0283E080939F
:1010E0007B0287E080937C0285E080937D0281E033
:1010F00080937E020895AA1BBB1B51E107C0AA1F63
:10110000BB1FA617B70710F0A61BB70B881F991FA8
:101110005A95A9F780959095BC01CD010895A1E25B
:101120001A2EAA1BBB1BFD010DC0AA1FBB1FEE1F61
:10113000FF1FA217B307E407F50720F0A21BB30BAC
:10114000E40BF50B661F771F881F991F1A9469F728
:1011500060957095809590959B01AC01BD01CF0184
:101160000895EE0FFF1F0590F491E02D0994F89477
:02117000FFCFAF
:101172000A5B576561746865725265616465725D88
:101182000A004F5356320056454E540046494E45CA
:10119200004D414E44000008040C020A060E0109EB
:1011A200050D030B070F000000007D0288002D02D1
:1011B200000000001D01AE000D02000000006501EC
:1011C200EA000D0200000000B20111010D02000050
:0E11D2000000E80676058E06BB06A006DD06C8
:00000001FF
