:100000000C945E000C9486000C9486000C94860080
:100010000C9486000C9486000C9486000C94860048
:100020000C9486000C9486000C9486000C94860038
:100030000C9486000C9486000C9486000C94860028
:100040000C9407040C9486000C94DF050C94220693
:100050000C9486000C9486000C9486000C94D702B5
:100060000C9486000C94860000000007000201003A
:100070000003040600000000000000000102040864
:100080001020408001020408102001020408102002
:10009000040404040404040402020202020203032E
:1000A0000303030300000000250028002B000000CC
:1000B0000000240027002A00CB03DE0611241FBE07
:1000C000CFEFD4E0DEBFCDBF11E0A0E0B1E0E8EEBD
:1000D000F0E102C005900D92A236B107D9F712E007
:1000E000A2E6B1E001C01D92A639B107E1F710E028
:1000F000CCEBD0E004C02297FE010E946E08C83B02
:10010000D107C9F70E9434070C9447080C940000EB
:10011000FC01258130E02250310950E040E0652F9C
:1001200070E06217730764F4FC01E60FF71F668145
:10013000762F7F7062956F70670F460F5F5FEFCF0E
:1001400050E04A505109FC01E20FF31F268130E0D4
:1001500081E04217530709F080E00895DC0117960B
:100160002C912F7751E02C3619F050E04FE001C070
:1001700047E020E0322F3695FC01E30FF11DE681C8
:1001800020FF03C0EF70F0E006C0F0E034E0F5952A
:10019000E7953A95E1F7E65EFE4F3081511101C0D7
:1001A0003195430F2F5F283029F74F7050E0DC0165
:1001B0001A96EC91F0E084E0F595E7958A95E1F7E1
:1001C000E65EFE4F208130E081E04217530709F0E0
:1001D00080E00895FC01258130E02150310960E084
:1001E00070E0472F50E0FC01421753079CF4E40FE6
:1001F000F51F46816427E8E0462F50E0440F551F65
:1002000067FF02C061E301C060E06427E150A1F72D
:100210007F5FE7CFE20FF31F81E09681691380E0F3
:100220000895FC012681207F203C29F4978190735A
:1002300081E0903309F080E00895CF93DF93EC01E3
:100240008C81882319F0813049F03BC0695A714094
:1002500066397105B0F581E08C831DC0CB01855AEC
:10026000964083359B40C8F46C3F88E0780738F4AB
:10027000E881F9810480F581E02D60E009C06934EE
:100280007D40F8F0E881F9810480F581E02D61E09E
:10029000CE0109951C8280E015C08A81843288F0E5
:1002A000635E7D416B387A4060F49D81FE01E90F09
:1002B000F11D86818295807F86839F5F9D8381E08B
:1002C00001C08FEFDF91CF910895CF93DF93EC01C1
:1002D000CB0180599140813B944008F03FC08C8114
:1002E0008230A1F0853039F0811138C06835724014
:1002F000A8F585E009C065587340673C710570F545
:100300008B818F5F8B8382E08C8322C0683522E0F3
:10031000720750F48B818B3008F1E881F9810480F9
:10032000F581E02D61E00BC067347540B8F08BE0DB
:100330008B83E881F9810480F581E02D60E0CE01B6
:1003400009958A81883231F48E81807F803321F44F
:1003500080E005C08833E1F781E001C08FEFDF91D5
:10036000CF910895CF93DF93EC01653388E0780750
:10037000A0F5603283E0780728F48A81843268F13E
:1003800081E02CC08C818230C9F0853039F0811138
:1003900024C06C34744008F582E01CC06C3484E0E6
:1003A0007807D0F369307740C0F0E881F9810480A4
:1003B000F581E02D60E0CE0109950DC06C347440EC
:1003C00060F4E881F9810480F581E02D61E0CE01DF
:1003D000099585E08C8380E001C08FEFDF91CF919C
:1003E0000895FC018581DF01A80FB11D16968C913F
:1003F0001697880F862B16968C9382818F5F828347
:1004000090E0A3E095958795AA95E1F785838931DA
:1004100028F01382158212821482089585E0848365
:100420000895FC01828180FD12C09581DF01A90F32
:10043000B11D16962C91169730E0359527956623B9
:1004400011F090E801C090E0292B16962C938F5F55
:10045000828390E0B4E095958795BA95E1F785831E
:1004600085E084830895CF93DF93EC018C818630FF
:1004700091F0E881F9810190F081E02DCE0109959C
:100480008F3F29F0813039F486E08C8304C01B82D1
:100490001D821A821C8281E09C81963009F080E0E6
:1004A000DF91CF910895DC0113962C911397622769
:1004B00013966C931397ED91FC910480F581E02DD8
:1004C0000994CF93DF93EC01CB01885C9109803BC9
:1004D000944008F068C081E06C3B724008F480E012
:1004E0009C819130B1F018F0953061F018C09B817B
:1004F000882319F09F5F9B8312C0903208F453C089
:100500001B8202C0811103C081E08C8308C061E0BE
:1005100003C0811148C060E0CE010E9453028D816A
:100520008230D1F58E818A3131F48F818F7E893886
:1005300099F580EB30C08A3249F48F81893111F40A
:1005400088EB29C08D3141F588EA25C08A3539F418
:100550008F818D3571F38D36F9F480EC1CC0982FA6
:100560009F7E9A3829F49F819C3E49F480ED13C008
:100570008A3D29F48F81883769F480E90CC08A3E6E
:1005800049F48F818C3411F488E805C08C3721F44C
:1005900080EF01C080EA8F8F81E02A819F8D29172B
:1005A00019F080E001C08FEFDF91CF9108951F9285
:1005B0000F920FB60F9211242F933F934F935F9397
:1005C0006F937F938F939F93AF93BF93EF93FF931B
:1005D0000E9451042091620130916301621B730BF0
:1005E000709365016093640180916401909165014D
:1005F000820F931F9093630180936201FF91EF91AB
:10060000BF91AF919F918F917F916F915F914F912A
:100610003F912F910F900FBE0F901F901895BF9292
:10062000CF92DF92EF92FF920F931F93CF93DF93BE
:100630008C01EB01E881F9810280F381E02DCB018F
:1006400009958823B9F1BD80B8018CEE91E00E9434
:100650007F0760E28CEE91E00E9481077E0186E0D8
:10066000E80EF11C8701802F8E198B15D8F46801D4
:10067000F80161918F0170E024E0759567952A95E6
:10068000E1F740E150E08CEE91E00E943F08F60176
:1006900060816F7070E040E150E08CEE91E00E946C
:1006A0003F08E1CF8CEE91E00E9488071B821D82FB
:1006B0001A821C82DF91CF911F910F91FF90EF90D2
:1006C000DF90CF90BF90089540E052EC61E070E081
:1006D0008CEE91E00E945D0660E08FE00E94D804FD
:1006E00061E08FE00E94110588E580BFEAE7F0E055
:1006F00080818F778083EBE7F0E080818064808366
:1007000081E080937C000895CF93DF93F894C091AB
:100710006401D09165011092650110926401789492
:100720002097B1F1BE0183EC91E00E94330288234F
:1007300031F063EC71E086E091E00E940F03BE01AE
:1007400084EA91E00E943302882331F064EA71E088
:100750008BE091E00E940F03BE0185E891E00E94CA
:100760003302882331F065E871E080E191E00E9476
:100770000F03BE0186E691E00E943302882341F018
:1007800066E671E085E191E0DF91CF910C940F0373
:10079000DF91CF9108951092C6011092C801109276
:1007A000C5011092C7018EE291E09093C40180933D
:1007B000C30180EA8093E2011092A7011092A9017F
:1007C0001092A6011092A80188E391E09093A501F0
:1007D0008093A4011092880110928A0110928701DF
:1007E0001092890182E491E09093860180938501C3
:1007F0001092690110926B011092680110926A01C7
:100800008CE491E0909367018093660108951F92B4
:100810000F920FB60F9211242F933F938F939F93B4
:10082000AF93BF938091E4019091E501A091E6011F
:10083000B091E7013091E30123E0230F2D3720F43D
:100840000196A11DB11D05C026E8230F0296A11D2A
:10085000B11D2093E3018093E4019093E501A093FF
:10086000E601B093E7018091E8019091E901A09140
:10087000EA01B091EB010196A11DB11D8093E80141
:100880009093E901A093EA01B093EB01BF91AF917E
:100890009F918F913F912F910F900FBE0F901F90BE
:1008A00018953FB7F8948091E8019091E901A091E3
:1008B000EA01B091EB0126B5A89B05C02F3F19F0C6
:1008C0000196A11DB11D3FBF6627782F892F9A2F52
:1008D000620F711D811D911D42E0660F771F881FF9
:1008E000991F4A95D1F70895789484B5826084BDA4
:1008F00084B5816084BD85B5826085BD85B5816024
:1009000085BDEEE6F0E0808181608083E1E8F0E083
:100910001082808182608083808181608083E0E8B2
:10092000F0E0808181608083E1EBF0E08081846091
:100930008083E0EBF0E0808181608083EAE7F0E093
:1009400080818460808380818260808380818160F7
:1009500080838081806880831092C10008958330F5
:1009600081F028F4813099F08230A1F0089586302A
:10097000A9F08730B9F08430D1F4809180008F7D68
:1009800003C0809180008F7780938000089584B5A4
:100990008F7702C084B58F7D84BD08958091B000AB
:1009A0008F7703C08091B0008F7D8093B000089551
:1009B000CF93DF9390E0FC01E458FF4F2491FC01BA
:1009C000E057FF4F8491882349F190E0880F991FE9
:1009D000FC01E255FF4FA591B4918C559F4FFC014E
:1009E000C591D4919FB7611108C0F8948C9120955E
:1009F00082238C93888182230AC0623051F4F89458
:100A00008C91322F309583238C938881822B88831D
:100A100004C0F8948C91822B8C939FBFDF91CF916F
:100A200008950F931F93CF93DF931F92CDB7DEB737
:100A3000282F30E0F901E859FF4F8491F901E4587B
:100A4000FF4F1491F901E057FF4F04910023C9F0C3
:100A5000882321F069830E94AF046981E02FF0E0D0
:100A6000EE0FFF1FEC55FF4FA591B4919FB7F8947F
:100A70008C91611103C01095812301C0812B8C934F
:100A80009FBF0F90DF91CF911F910F910895FC01AF
:100A900024853585F901E05CFF4F80819181F90162
:100AA000EE5BFF4F20813181821B930B8F7399275F
:100AB0000895FC0184859585FC01E05CFF4F408131
:100AC0005181FC01EE5BFF4F2081318142175307BA
:100AD00041F00190F081E02DE80FF91F808190E056
:100AE00008958FEF9FEF0895FC0184859585FC01A3
:100AF000E05CFF4F40815181FC01EE5BFF4F2081A4
:100B000031814217530779F0A081B181A80FB91F35
:100B10008C91208131812F5F3F4F2F733327318399
:100B2000208390E008958FEF9FEF0895FC0181A14D
:100B3000882329F0A489B5898C9186FFFBCF11A267
:100B40000895CF93DF93FC0126853785D901A05CFA
:100B5000BF4F8D919C91119701968F739927E90151
:100B6000CE5BDF4F4881598184179507D9F30D90EB
:100B7000BC91A02DA20FB31F6C93A685B785A05C76
:100B8000BF4F11969C938E93A689B7892C9181E0D3
:100B900090E0078C02C0880F991F0A94E2F7282B77
:100BA0002C9381E081A30488F589E02D8081806405
:100BB000808381E090E0DF91CF91089508951F92A6
:100BC0000F920FB60F9211242F933F934F938F9351
:100BD0009F93EF93FF938091C00082FD1CC04091D2
:100BE000C600809192029091930201968F7399278B
:100BF00020919402309195028217930771F0E09151
:100C00009202F0919302EE5AFD4F4083909393022B
:100C10008093920202C08091C600FF91EF919F9154
:100C20008F914F913F912F910F900FBE0F901F907A
:100C300018958CEE91E00E944705892B11F00C94D9
:100C4000DE0508951F920F920FB60F9211242F9375
:100C50003F938F939F93EF93FF9320914E02309198
:100C60004F0280915002909151022817390731F4B8
:100C70008091C1008F7D8093C10014C0E09150022B
:100C8000F0915102E25FFD4F2081809150029091DE
:100C9000510201968F7399279093510280935002CD
:100CA0002093C600FF91EF919F918F913F912F91DB
:100CB0000F900FBE0F901F901895CF92DF92EF927A
:100CC000FF92CF93DF93EC016A017B01411581EE26
:100CD000580761057105F9F0EC89FD8981E090E024
:100CE00008A002C0880F991F0A94E2F7808360E091
:100CF00079E08DE390E0A70196010E944A08215017
:100D00003109410951095695479537952795211580
:100D100080E1380798F0EC89FD89108260E874E87A
:100D20008EE190E0A70196010E944A082150310906
:100D3000410951095695479537952795E889F989CD
:100D40003083EA89FB89208319A2EE89FF894081DB
:100D500081E090E09C010C8C02C0220F331F0A94AA
:100D6000E2F7422B4083EE89FF8940819C010D8C84
:100D700002C0220F331F0A94E2F7422B4083EE8910
:100D8000FF8940819C010E8C02C0220F331F0A9400
:100D9000E2F7422B4083EE89FF8920810F8C02C04D
:100DA000880F991F0A94E2F7809582238083DF9150
:100DB000CF91FF90EF90DF90CF9008951092EF01C8
:100DC0001092EE0188EE93E0A0E0B0E08093F00195
:100DD0009093F101A093F201B093F30186E591E0C5
:100DE0009093ED018093EC0182E592E09093F901FC
:100DF0008093F8018EE092E09093FB018093FA01DA
:100E000085EC90E09093FD018093FC0184EC90E0F0
:100E10009093FF018093FE0180EC90E0909301029B
:100E20008093000281EC90E0909303028093020291
:100E300082EC90E0909305028093040286EC90E0AF
:100E4000909307028093060284E08093080283E077
:100E50008093090287E080930A0285E080930B0269
:100E600081E080930C0208950E9474040E94640340
:100E7000C9E1D6E00E9484032097E1F30E9419069D
:100E8000F9CFCF92DF92EF92FF920F931F93CF9300
:100E9000DF936C017A01EB01E60EF71E00E010E033
:100EA000CE15DF0561F06991D601ED91FC910190BD
:100EB000F081E02DC6010995080F191FF1CFC80177
:100EC000DF91CF911F910F91FF90EF90DF90CF9026
:100ED00008956115710581F0DB010D900020E9F79F
:100EE000AD0141505109461B570BDC01ED91FC91BE
:100EF0000280F381E02D099480E090E008950C9445
:100F00006907DC01ED91FC910190F081E02D0994DD
:100F10000F931F93CF93DF93EC016DE00E94810745
:100F20008C016AE0CE010E948107800F911FDF9142
:100F3000CF911F910F9108958F929F92AF92BF9280
:100F4000CF92DF92EF92FF920F931F93CF93DF9395
:100F5000CDB7DEB7A1970FB6F894DEBF0FBECDBFF9
:100F60007C01C42EE52FCB01D22E19A221E02D1534
:100F700010F02AE0D22E8E010F5D1F4F8D2C912C88
:100F8000A12CB12C6C2D7E2FA50194010E944A0842
:100F90008C2DD29E80191124015011098A3014F42D
:100FA000805D01C0895CF801808321153105410510
:100FB000510521F0C22EE32FCA01E4CFB801C701C9
:100FC0000E946907A1960FB6F894DEBF0FBECDBF91
:100FD000DF91CF911F910F91FF90EF90DF90CF9015
:100FE000BF90AF909F908F900895CF92DF92EF9235
:100FF000FF920F931F93CF93DF93EC016A017B0164
:101000002115310579F4E881F9810190F081E02D15
:10101000642FDF91CF911F910F91FF90EF90DF90A0
:10102000CF9009942A303105E9F477FF1AC06DE2B8
:101030000E9481078C0144275527BA014C195D098C
:101040006E097F092AE0CE010E949C07800F911F44
:10105000DF91CF911F910F91FF90EF90DF90CF9094
:1010600008952AE0B701A601CE01DF91CF911F912B
:101070000F91FF90EF90DF90CF900C949C079A0116
:10108000AB01662757FD6095762F0C94F507F89411
:101090000C947208A1E21A2EAA1BBB1BFD010DC005
:1010A000AA1FBB1FEE1FFF1FA217B307E407F50718
:1010B00020F0A21BB30BE40BF50B661F771F881FF4
:1010C000991F1A9469F760957095809590959B018A
:1010D000AC01BD01CF010895EE0FFF1F0590F49103
:0810E000E02D0994F894FFCF04
:1010E8000000960220004F5356320056454E5400D9
:1010F80046494E45004D414E44000008040C020A82
:10110800060E0109050D030B070F00000000610220
:1011180088001102000000001D01AE00F10100006E
:1011280000006501EA00F10100000000B2011101B0
:10113800F10100000000A1054107470574055905A4
:0211480096050A
:00000001FF
