:100000000C945E000C9486000C9486000C94860080
:100010000C9486000C9486000C9486000C94860048
:100020000C9486000C9486000C9486000C94860038
:100030000C9486000C9486000C9486000C94860028
:100040000C94C0040C9486000C94BD070C9400081A
:100050000C9486000C9486000C9486000C94630328
:100060000C9486000C94860000000007000201003A
:100070000003040600000000000000000102040864
:100080001020408001020408102001020408102002
:10009000040404040404040402020202020203032E
:1000A0000303030300000000250028002B000000CC
:1000B0000000240027002A006C04BC0811241FBE85
:1000C000CFEFD8E0DEBFCDBF11E0A0E0B1E0E0EAC5
:1000D000F2E102C005900D92AE37B107D9F713E0F7
:1000E000AEE7B1E001C01D92AC33B107E1F710E01B
:1000F000CCEBD0E004C02297FE010E944A09C83B25
:10010000D107C9F70E9400060C944E090C94000018
:1001100081E00895FC01268130E02250310950E051
:1001200040E0652F70E06217730764F4FC01E60F8E
:10013000F71F6781762F7F7062956F70670F460F8C
:100140005F5FEFCF50E04A505109FC01E20FF31F0F
:10015000278130E081E04217530709F080E00895DD
:10016000FC018681DF01A80FB11D17968C911797AE
:1001700090E095958795662311F020E801C020E076
:10018000822B17968C9382818F5F828390E023E08D
:10019000959587952A95E1F78683893130F0148209
:1001A0001682138212821582089585E08583089550
:1001B000DC0118962C912F7751E02C3619F050E085
:1001C0004FE001C047E020E0322F3695FC01E30FFD
:1001D000F11DE78120FF03C0EF70F0E006C0F0E002
:1001E00074E0F595E7957A95E1F7E55DFE4F30818E
:1001F000511101C03195430F2F5F283029F74F70FF
:1002000050E0DC011B96EC91F0E064E0F595E79599
:100210006A95E1F7E55DFE4F208130E081E042170D
:10022000530709F080E00895FC01268130E0215059
:10023000310960E070E0472F50E0FC01421753079E
:100240009CF4E40FF51F47816427E8E0462F50E057
:10025000440F551F67FF02C061E301C060E06427DF
:10026000E150A1F77F5FE7CFE20FF31F81E09781B5
:10027000691380E00895FC012781207F203C29F448
:100280009085907381E0903309F080E00895CF93DA
:10029000DF93EC018D81882319F0813049F03BC058
:1002A000625C714064367105B0F581E08D831DC0DC
:1002B000CB018950974087329A40C8F4683988E06A
:1002C000780738F4E881F9810480F581E02D60E059
:1002D00009C0693D7E40F8F0E881F9810480F5812C
:1002E000E02D61E0CE0109951D8280E015C08A8174
:1002F000843288F065537142673E734060F49E819A
:10030000FE01E90FF11D87818295807F87839F5FC2
:100310009E8381E001C08FEFDF91CF910895CF934D
:10032000DF93EC01CB0180599140813B944008F070
:100330003FC08D818230A1F0853039F0811138C005
:1003400068357240A8F585E009C065587340673C80
:10035000710570F58C818F5F8C8382E08D8322C064
:10036000683522E0720750F48C818B3008F1E88107
:10037000F9810480F581E02D61E00BC067347540A0
:10038000B8F08BE08C83E881F9810480F581E02D61
:1003900060E0CE0109958A81883231F48F81807FB7
:1003A000803321F480E005C08833E1F781E001C0AB
:1003B0008FEFDF91CF910895CF93DF93EC019B01F5
:1003C0008091E4019091E501FC013196F093E50103
:1003D000E093E40162E370E00E941209880F991F24
:1003E00080589E4FDC012D933C93F39720F01092A0
:1003F000E5011092E4012533B8E03B07A0F5203277
:1004000083E0380728F48A81843268F181E02CC0C7
:100410008D818230C9F0853039F0811124C02C34AF
:10042000344008F582E01CC02C34B4E03B07D0F324
:1004300029303740C0F0E881F9810480F581E02D52
:1004400060E0CE0109950DC02C34344060F4E881A1
:10045000F9810480F581E02D61E0CE01099585E008
:100460008D8380E001C08FEFDF91CF910895FC0173
:100470008681DF01A80FB11D17968C911797880F01
:10048000862B17968C9382818F5F828390E0B3E0F6
:1004900095958795BA95E1F78683893130F0148276
:1004A0001682138212821582089585E0858308954D
:1004B000FC01828180FD12C09681DF01A90FB11D70
:1004C00017962C91179730E035952795662311F0F4
:1004D00090E801C090E0292B17962C938F5F8283C0
:1004E00090E024E0959587952A95E1F7868385E04D
:1004F00085830895CF93DF93EC018D81863001F1E0
:10050000E881F9810190F081E02DCE0109958F3FBE
:1005100019F0813039F014C01C821E821B821A82AD
:100520001D820EC08B81882349F0E881F981048007
:10053000F581E02D60E0CE010995F4CF86E08D8352
:1005400081E09D81963009F080E0DF91CF910895A0
:10055000DC0114962C911497622714966C931497CF
:10056000ED91FC910480F581E02D0994CF93DF9308
:10057000EC01CB01885C9109883E934008F068C08B
:1005800081E06C3B724008F480E09D819130B1F0D5
:1005900018F0953061F018C09C81882319F09F5F96
:1005A0009C8312C0903208F453C01C8202C0811197
:1005B00003C081E08D8308C061E003C0811148C0A1
:1005C00060E0CE010E94A8028E818230D1F58F8139
:1005D0008A3131F488858F7E893899F580EB30C077
:1005E0008A3249F48885893111F488EB29C08D312C
:1005F00041F588EA25C08A3539F488858D3571F34F
:100600008D36F9F480EC1CC0982F9F7E9A3829F41F
:1006100098859C3E49F480ED13C08A3D29F4888575
:10062000883769F480E90CC08A3E49F488858C34A7
:1006300011F488E805C08C3721F480EF01C080EA0E
:1006400088A381E02A8198A1291719F080E001C0D0
:100650008FEFDF91CF910895CF93DF93EC01CB0122
:10066000885C9109883E934050F581E06C3B724074
:1006700008F480E09D819130B1F018F0953061F080
:1006800018C09C81811103C09F5F9C8312C090326F
:10069000B0F081E08C8305C0811103C081E08D83BF
:1006A00008C061E003C081110AC060E0CE010E9471
:1006B000A80281E09A81903519F080E001C08FEFA7
:1006C000DF91CF9108951F920F920FB60F921124D0
:1006D0002F933F934F935F936F937F938F939F934A
:1006E000AF93BF93EF93FF930E940A0520917E0181
:1006F00030917F01621B730B7093E7016093E601F9
:100700008091E6019091E701820F931F90937F0102
:1007100080937E01FF91EF91BF91AF919F918F9157
:100720007F916F915F914F913F912F910F900FBEED
:100730000F901F901895BF92CF92DF92EF92FF9289
:100740000F931F93CF93DF938C01EB01E881F98125
:100750000280F381E02DCB0109958823C1F1BE8091
:10076000B80182E992E00E944B0660E282E992E0E1
:100770000E944D067E0187E0E80EF11C8701802F64
:100780008E198B15D8F46801F80161918F0170E022
:1007900054E0759567955A95E1F740E150E082E99C
:1007A00092E00E941D07F60160816F7070E040E1E9
:1007B00050E082E992E00E941D07E1CF82E992E0D9
:1007C0000E9454061C821E821B821A821D82DF91A7
:1007D000CF911F910F91FF90EF90DF90CF90BF903E
:1007E000089540E052EC61E070E082E992E00E94FE
:1007F0003B0860E071E082E992E00E94680660E0F8
:100800008FE00E94910561E08FE00E94CA0588E5B3
:1008100080BFEAE7F0E080818F778083EBE7F0E04C
:1008200080818064808381E080937C000895CF93F1
:10083000DF93F894C091E601D091E7011092E701AF
:100840001092E6017894209709F443C0BE0188E62F
:1008500092E00E947A02882331F068E672E082E139
:1008600091E00E949B03BE0188E492E00E947A021C
:10087000882331F068E472E087E191E00E949B03F5
:10088000BE0188E292E00E947A02882331F068E299
:1008900072E08CE191E00E949B03BE0188E092E04F
:1008A0000E947A02882331F068E072E081E291E0F0
:1008B0000E949B03BE0188EE91E00E947A02882389
:1008C00041F068EE71E086E291E0DF91CF910C9407
:1008D0009B03DF91CF91089510926C0210926E02EB
:1008E00010926B0210926A0210926D028FE391E0F7
:1008F000909369028093680280EA80938802109244
:100900004C0210924E0210924B0210924A02109228
:100910004D0289E491E0909349028093480210923D
:100920002C0210922E0210922B0210922A02109288
:100930002D0283E591E09093290280932802109282
:100940000C0210920E0210920B0210920A021092E8
:100950000D028DE591E090930902809308021092B8
:10096000EC011092EE011092EB011092EA0110924C
:10097000ED0187E691E09093E9018093E801089505
:100980001F920F920FB60F9211242F933F938F93C4
:100990009F93AF93BF9380918A0290918B02A09115
:1009A0008C02B0918D023091890223E0230F2D3704
:1009B00020F40196A11DB11D05C026E8230F029663
:1009C000A11DB11D2093890280938A0290938B020E
:1009D000A0938C02B0938D0280918E0290918F0231
:1009E000A0919002B09191020196A11DB11D80933A
:1009F0008E0290938F02A0939002B0939102BF91C8
:100A0000AF919F918F913F912F910F900FBE0F90BB
:100A10001F9018953FB7F89480918E0290918F02A5
:100A2000A0919002B091910226B5A89B05C02F3FDE
:100A300019F00196A11DB11D3FBF6627782F892FA0
:100A40009A2F620F711D811D911D42E0660F771F65
:100A5000881F991F4A95D1F70895789484B58260CC
:100A600084BD84B5816084BD85B5826085BD85B552
:100A7000816085BDEEE6F0E0808181608083E1E801
:100A8000F0E0108280818260808380818160808339
:100A9000E0E8F0E0808181608083E1EBF0E080813C
:100AA00084608083E0EBF0E0808181608083EAE70E
:100AB000F0E0808184608083808182608083808197
:100AC000816080838081806880831092C100089556
:100AD000833081F028F4813099F08230A1F00895BC
:100AE0008630A9F08730B9F08430D1F4809180004D
:100AF0008F7D03C0809180008F7780938000089560
:100B000084B58F7702C084B58F7D84BD08958091B0
:100B1000B0008F7703C08091B0008F7D8093B000CC
:100B20000895CF93DF9390E0FC01E458FF4F2491A8
:100B3000FC01E057FF4F8491882349F190E0880F32
:100B4000991FFC01E255FF4FA591B4918C559F4F21
:100B5000FC01C591D4919FB7611108C0F8948C91A4
:100B6000209582238C93888182230AC0623051F4BD
:100B7000F8948C91322F309583238C938881822B2B
:100B8000888304C0F8948C91822B8C939FBFDF9153
:100B9000CF9108950F931F93CF93DF931F92CDB7FB
:100BA000DEB7282F30E0F901E859FF4F8491F901B1
:100BB000E458FF4F1491F901E057FF4F04910023CF
:100BC000C9F0882321F069830E9468056981E02FBC
:100BD000F0E0EE0FFF1FEC55FF4FA591B4919FB7CA
:100BE000F8948C91611103C01095812301C0812B71
:100BF0008C939FBF0F90DF91CF911F910F9108951C
:100C00000E942D050E94F103C7EFD7E00E94170450
:100C10002097E1F30E94F707F9CFCF92DF92EF928E
:100C2000FF920F931F93CF93DF936C017A01EB0137
:100C3000E60EF71E00E010E0CE15DF0561F06991C9
:100C4000D601ED91FC910190F081E02DC60109954E
:100C5000080F191FF1CFC801DF91CF911F910F919C
:100C6000FF90EF90DF90CF9008956115710581F0AE
:100C7000DB010D900020E9F7AD0141505109461B01
:100C8000570BDC01ED91FC910280F381E02D09947A
:100C900080E090E008950C943506DC01ED91FC9124
:100CA0000190F081E02D09940F931F93CF93DF9370
:100CB000EC016DE00E944D068C016AE0CE010E94BD
:100CC0004D06800F911FDF91CF911F910F910895D5
:100CD0000F931F93CF93DF93EC010E9435068C0195
:100CE000CE010E945406800F911FDF91CF911F917A
:100CF0000F9108958F929F92AF92BF92CF92DF9201
:100D0000EF92FF920F931F93CF93DF93CDB7DEB790
:100D1000A1970FB6F894DEBF0FBECDBF7C01C42EE5
:100D2000E52FCB01D22E19A221E02D1510F02AE0DB
:100D3000D22E8E010F5D1F4F8D2C912CA12CB12C2A
:100D40006C2D7E2FA50194010E9426098C2DD29E28
:100D500080191124015011098A3014F4805D01C0FA
:100D6000895CF8018083211531054105510521F089
:100D7000C22EE32FCA01E4CFB801C7010E94350695
:100D8000A1960FB6F894DEBF0FBECDBFDF91CF9115
:100D90001F910F91FF90EF90DF90CF90BF90AF9099
:100DA0009F908F900895CF92DF92EF92FF920F93D2
:100DB0001F93CF93DF93EC016A017B01211531056D
:100DC00079F4E881F9810190F081E02D642FDF91C1
:100DD000CF911F910F91FF90EF90DF90CF900994EA
:100DE0002A303105E9F477FF1AC06DE20E944D0602
:100DF0008C0144275527BA014C195D096E097F09FA
:100E00002AE0CE010E947A06800F911FDF91CF91D8
:100E10001F910F91FF90EF90DF90CF9008952AE0FF
:100E2000B701A601CE01DF91CF911F910F91FF90E5
:100E3000EF90DF90CF900C947A069A01AB01662771
:100E400057FD6095762F0C94D306FC0124853585DB
:100E5000F901E05CFF4F80819181F901EE5BFF4F6A
:100E600020813181821B930B8F7399270895FC0198
:100E700084859585FC01E05CFF4F40815181FC0138
:100E8000EE5BFF4F208131814217530741F0019003
:100E9000F081E02DE80FF91F808190E008958FEF39
:100EA0009FEF0895FC0184859585FC01E05CFF4F70
:100EB00040815181FC01EE5BFF4F2081318142175F
:100EC000530779F0A081B181A80FB91F8C912081BF
:100ED00031812F5F3F4F2F7333273183208390E081
:100EE00008958FEF9FEF0895FC0181A1882329F0D9
:100EF000A489B5898C9186FFFBCF11A20895CF9369
:100F0000DF93FC0126853785D901A05CBF4F8D9109
:100F10009C91119701968F739927E901CE5BDF4F62
:100F20004881598184179507D9F30D90BC91A02D64
:100F3000A20FB31F6C93A685B785A05CBF4F119617
:100F40009C938E93A689B7892C9181E090E0078CC1
:100F500002C0880F991F0A94E2F7282B2C9381E096
:100F600081A30488F589E02D80818064808381E0FD
:100F700090E0DF91CF91089508951F920F920FB6E0
:100F80000F9211242F933F934F938F939F93EF933F
:100F9000FF938091C00082FD1CC04091C6008091EB
:100FA00038039091390301968F73992720913A0362
:100FB00030913B038217930771F0E0913803F09171
:100FC0003903E850FD4F40839093390380933803F1
:100FD00002C08091C600FF91EF919F918F914F9138
:100FE0003F912F910F900FBE0F901F90189582E99F
:100FF00092E00E942507892B11F00C94BC070895FC
:101000001F920F920FB60F9211242F933F938F933D
:101010009F93EF93FF932091F4023091F50280911A
:10102000F6029091F7022817390731F48091C10038
:101030008F7D8093C10014C0E091F602F091F70219
:10104000EC54FD4F20818091F6029091F7020196B9
:101050008F7399279093F7028093F6022093C6002E
:10106000FF91EF919F918F913F912F910F900FBE24
:101070000F901F901895CF92DF92EF92FF92CF932F
:10108000DF93EC016A017B01411581EE5807610590
:101090007105F9F0EC89FD8981E090E008A002C0BB
:1010A000880F991F0A94E2F7808360E079E08DE36E
:1010B00090E0A70196010E942609215031094109BB
:1010C00051095695479537952795211580E13807A1
:1010D00098F0EC89FD89108260E874E88EE190E078
:1010E000A70196010E9426092150310941095109A1
:1010F0005695479537952795E889F9893083EA8988
:10110000FB89208319A2EE89FF89408181E090E06C
:101110009C010C8C02C0220F331F0A94E2F7422B71
:101120004083EE89FF8940819C010D8C02C0220F13
:10113000331F0A94E2F7422B4083EE89FF894081F6
:101140009C010E8C02C0220F331F0A94E2F7422B3F
:101150004083EE89FF8920810F8C02C0880F991F80
:101160000A94E2F7809582238083DF91CF91FF90EC
:10117000EF90DF90CF900895109295021092940214
:1011800088EE93E0A0E0B0E08093960290939702FF
:10119000A0939802B093990281E791E09093930213
:1011A0008093920288EF92E090939F0280939E0238
:1011B00084EB92E09093A1028093A00285EC90E0F2
:1011C0009093A3028093A20284EC90E09093A502F6
:1011D0008093A40280EC90E09093A7028093A602F3
:1011E00081EC90E09093A9028093A80282EC90E0B9
:1011F0009093AB028093AA0286EC90E09093AD02AC
:101200008093AC0284E08093AE0283E08093AF02CF
:1012100087E08093B00285E08093B10281E0809303
:10122000B2020895AA1BBB1B51E107C0AA1FBB1F36
:10123000A617B70710F0A61BB70B881F991F5A9562
:10124000A9F780959095BC01CD010895A1E21A2ED1
:10125000AA1BBB1BFD010DC0AA1FBB1FEE1FFF1F5A
:10126000A217B307E407F50720F0A21BB30BE40BAA
:10127000F50B661F771F881F991F1A9469F76095F1
:101280007095809590959B01AC01BD01CF010895AB
:10129000EE0FFF1F0590F491E02D0994F894FFCF15
:1012A0000A5B576561746865725265616465725D59
:1012B0000A004F535632004F5356330056454E5492
:1012C0000046494E45004D414E44000008040C02C2
:1012D0000A060E0109050D030B070F00000000B6FA
:1012E000028A005802000000002C038800B00000B1
:1012F0000000004701D8003702000000008F0114F1
:1013000001370200000000DC013B01370200000051
:0E131000007F070D06250752073707740700F8
:00000001FF
