:100000000C945E000C9486000C9486000C94860080
:100010000C9486000C9486000C9486000C94860048
:100020000C9486000C9486000C9486000C94860038
:100030000C9486000C9486000C9486000C94860028
:100040000C940F040C9486000C94E7050C942A067B
:100050000C9486000C9486000C9486000C94D702B5
:100060000C9486000C94860000000007000201003A
:100070000003040600000000000000000102040864
:100080001020408001020408102001020408102002
:10009000040404040404040402020202020203032E
:1000A0000303030300000000250028002B000000CC
:1000B0000000240027002A00D303E60611241FBEF7
:1000C000CFEFD4E0DEBFCDBF11E0A0E0B1E0E0EDC6
:1000D000F0E102C005900D92A836B107D9F712E001
:1000E000A8E6B1E001C01D92AC39B107E1F710E01C
:1000F000CCEBD0E004C02297FE010E946208C83B0E
:10010000D107C9F70E943C070C943B080C940000EF
:10011000FC01258130E02250310950E040E0652F9C
:1001200070E06217730764F4FC01E60FF71F668145
:10013000762F7F7062956F70670F460F5F5FEFCF0E
:1001400050E04A505109FC01E20FF31F268130E0D4
:1001500081E04217530709F080E00895DC0117960B
:100160002C912F7751E02C3619F050E04FE001C070
:1001700047E020E0322F3695FC01E30FF11DE681C8
:1001800020FF03C0EF70F0E006C0F0E034E0F5952A
:10019000E7953A95E1F7E05EFE4F3081511101C0DD
:1001A0003195430F2F5F283029F74F7050E0DC0165
:1001B0001A96EC91F0E084E0F595E7958A95E1F7E1
:1001C000E05EFE4F208130E081E04217530709F0E6
:1001D00080E00895FC01258130E02150310960E084
:1001E00070E0472F50E0FC01421753079CF4E40FE6
:1001F000F51F46816427E8E0462F50E0440F551F65
:1002000067FF02C061E301C060E06427E150A1F72D
:100210007F5FE7CFE20FF31F81E09681691380E0F3
:100220000895FC012681207F203C29F4978190735A
:1002300081E0903309F080E00895CF93DF93EC01E3
:100240008C81882319F0813049F03BC0695A714094
:1002500066397105B0F581E08C831DC0CB01855AEC
:10026000964083359B40C8F46C3F88E0780738F4AB
:10027000E881F9810480F581E02D60E009C06934EE
:100280007D40F8F0E881F9810480F581E02D61E09E
:10029000CE0109951C8280E015C08A81843288F0E5
:1002A000635E7D416B387A4060F49D81FE01E90F09
:1002B000F11D86818295807F86839F5F9D8381E08B
:1002C00001C08FEFDF91CF910895CF93DF93EC01C1
:1002D000CB0180599140813B944008F03FC08C8114
:1002E0008230A1F0853039F0811138C06835724014
:1002F000A8F585E009C065587340673C710570F545
:100300008B818F5F8B8382E08C8322C0683522E0F3
:10031000720750F48B818B3008F1E881F9810480F9
:10032000F581E02D61E00BC067347540B8F08BE0DB
:100330008B83E881F9810480F581E02D60E0CE01B6
:1003400009958A81883231F48E81807F803321F44F
:1003500080E005C08833E1F781E001C08FEFDF91D5
:10036000CF910895CF93DF93EC01653388E0780750
:10037000A0F5603283E0780728F48A81843268F13E
:1003800081E02CC08C818230C9F0853039F0811138
:1003900024C06C34744008F582E01CC06C3484E0E6
:1003A0007807D0F369307740C0F0E881F9810480A4
:1003B000F581E02D60E0CE0109950DC06C347440EC
:1003C00060F4E881F9810480F581E02D61E0CE01DF
:1003D000099585E08C8380E001C08FEFDF91CF919C
:1003E0000895FC018581DF01A80FB11D16968C913F
:1003F0001697880F862B16968C9382818F5F828347
:1004000090E0A3E095958795AA95E1F785838931DA
:1004100028F01382158212821482089585E0848365
:100420000895FC01828180FD12C09581DF01A90F32
:10043000B11D16962C91169730E0359527956623B9
:1004400011F090E801C090E0292B16962C938F5F55
:10045000828390E0B4E095958795BA95E1F785831E
:1004600085E084830895CF93DF93EC018C818630FF
:1004700091F0E881F9810190F081E02DCE0109959C
:100480008F3F29F0813039F486E08C8304C01B82D1
:100490001D821A821C8281E09C81963009F080E0E6
:1004A000DF91CF910895DC0113962C911397622769
:1004B00013966C931397ED91FC910480F581E02DD8
:1004C0000994CF93DF93EC01CB01885C9109803BC9
:1004D000944008F068C081E06C3B724008F480E012
:1004E0009C819130B1F018F0953061F018C09B817B
:1004F000882319F09F5F9B8312C0903208F453C089
:100500001B8202C0811103C081E08C8308C061E0BE
:1005100003C0811148C060E0CE010E9453028D816A
:100520008230D1F58E818A3131F48F818F7E893886
:1005300099F580EB30C08A3249F48F81893111F40A
:1005400088EB29C08D3141F588EA25C08A3539F418
:100550008F818D3571F38D36F9F480EC1CC0982FA6
:100560009F7E9A3829F49F819C3E49F480ED13C008
:100570008A3D29F48F81883769F480E90CC08A3E6E
:1005800049F48F818C3411F488E805C08C3721F44C
:1005900080EF01C080EA8F8F81E02A819F8D29172B
:1005A00019F080E001C08FEFDF91CF9108951F9285
:1005B0000F920FB60F9211242F933F934F935F9397
:1005C0006F937F938F939F93AF93BF93EF93FF931B
:1005D0000E9459042091680130916901621B730BDC
:1005E00070936B0160936A0180916A0190916B0135
:1005F000820F931F9093690180936801FF91EF919F
:10060000BF91AF919F918F917F916F915F914F912A
:100610003F912F910F900FBE0F901F901895BF9292
:10062000CF92DF92EF92FF920F931F93CF93DF93BE
:100630008C01EB01E881F9810280F381E02DCB018F
:1006400009958823C9F1BD80B80182EF91E00E942D
:10065000870760E282EF91E00E9489077E0186E0D1
:10066000E80EF11C8701802F8E198B15D8F46801D4
:10067000F80161918F0170E024E0759567952A95E6
:10068000E1F740E150E082EF91E00E943308F6018B
:1006900060816F7070E040E150E082EF91E00E9475
:1006A0003308E1CF6AE071E082EF91E00E948707B2
:1006B0001B821D821A821C82DF91CF911F910F91A4
:1006C000FF90EF90DF90CF90BF90089540E052EC04
:1006D00061E070E082EF91E00E94650666E071E003
:1006E00082EF91E00E94870760E08FE00E94E004C3
:1006F00061E08FE00E94190588E580BFEAE7F0E03D
:1007000080818F778083EBE7F0E080818064808355
:1007100081E080937C000895CF93DF93F894C0919B
:100720006A01D0916B0110926B0110926A0178946A
:100730002097B1F1BE0189EC91E00E943302882339
:1007400031F069EC71E08CE091E00E940F03BE0192
:100750008AEA91E00E943302882331F06AEA71E06C
:1007600081E191E00E940F03BE018BE891E00E94BD
:100770003302882331F06BE871E086E191E00E945A
:100780000F03BE018CE691E00E943302882341F002
:100790006CE671E08BE191E0DF91CF910C940F0357
:1007A000DF91CF9108951092CC011092CE0110925A
:1007B000CB011092CD0184E391E09093CA01809324
:1007C000C90180EA8093E8011092AD011092AF0157
:1007D0001092AC011092AE018EE391E09093AB01C8
:1007E0008093AA0110928E011092900110928D01B7
:1007F00010928F0188E491E090938C0180938B019B
:1008000010926F011092710110926E01109270019E
:1008100082E591E090936D0180936C0108951F92A1
:100820000F920FB60F9211242F933F938F939F93A4
:10083000AF93BF938091EA019091EB01A091EC01FD
:10084000B091ED013091E90123E0230F2D3720F421
:100850000196A11DB11D05C026E8230F0296A11D1A
:10086000B11D2093E9018093EA019093EB01A093DD
:10087000EC01B093ED018091EE019091EF01A09118
:10088000F001B091F1010196A11DB11D8093EE011F
:100890009093EF01A093F001B093F101BF91AF915C
:1008A0009F918F913F912F910F900FBE0F901F90AE
:1008B00018953FB7F8948091EE019091EF01A091C7
:1008C000F001B091F10126B5A89B05C02F3F19F0AA
:1008D0000196A11DB11D3FBF6627782F892F9A2F42
:1008E000620F711D811D911D42E0660F771F881FE9
:1008F000991F4A95D1F70895789484B5826084BD94
:1009000084B5816084BD85B5826085BD85B5816013
:1009100085BDEEE6F0E0808181608083E1E8F0E073
:100920001082808182608083808181608083E0E8A2
:10093000F0E0808181608083E1EBF0E08081846081
:100940008083E0EBF0E0808181608083EAE7F0E083
:1009500080818460808380818260808380818160E7
:1009600080838081806880831092C10008958330E5
:1009700081F028F4813099F08230A1F0089586301A
:10098000A9F08730B9F08430D1F4809180008F7D58
:1009900003C0809180008F7780938000089584B594
:1009A0008F7702C084B58F7D84BD08958091B0009B
:1009B0008F7703C08091B0008F7D8093B000089541
:1009C000CF93DF9390E0FC01E458FF4F2491FC01AA
:1009D000E057FF4F8491882349F190E0880F991FD9
:1009E000FC01E255FF4FA591B4918C559F4FFC013E
:1009F000C591D4919FB7611108C0F8948C9120954E
:100A000082238C93888182230AC0623051F4F89447
:100A10008C91322F309583238C938881822B88830D
:100A200004C0F8948C91822B8C939FBFDF91CF915F
:100A300008950F931F93CF93DF931F92CDB7DEB727
:100A4000282F30E0F901E859FF4F8491F901E4586B
:100A5000FF4F1491F901E057FF4F04910023C9F0B3
:100A6000882321F069830E94B7046981E02FF0E0B8
:100A7000EE0FFF1FEC55FF4FA591B4919FB7F8946F
:100A80008C91611103C01095812301C0812B8C933F
:100A90009FBF0F90DF91CF911F910F910895FC019F
:100AA00024853585F901E05CFF4F80819181F90152
:100AB000EE5BFF4F20813181821B930B8F7399274F
:100AC0000895FC0184859585FC01E05CFF4F408121
:100AD0005181FC01EE5BFF4F2081318142175307AA
:100AE00041F00190F081E02DE80FF91F808190E046
:100AF00008958FEF9FEF0895FC0184859585FC0193
:100B0000E05CFF4F40815181FC01EE5BFF4F208193
:100B100031814217530779F0A081B181A80FB91F25
:100B20008C91208131812F5F3F4F2F733327318389
:100B3000208390E008958FEF9FEF0895FC0181A13D
:100B4000882329F0A489B5898C9186FFFBCF11A257
:100B50000895CF93DF93FC0126853785D901A05CEA
:100B6000BF4F8D919C91119701968F739927E90141
:100B7000CE5BDF4F4881598184179507D9F30D90DB
:100B8000BC91A02DA20FB31F6C93A685B785A05C66
:100B9000BF4F11969C938E93A689B7892C9181E0C3
:100BA00090E0078C02C0880F991F0A94E2F7282B67
:100BB0002C9381E081A30488F589E02D80818064F5
:100BC000808381E090E0DF91CF91089508951F9296
:100BD0000F920FB60F9211242F933F934F938F9341
:100BE0009F93EF93FF938091C00082FD1CC04091C2
:100BF000C600809198029091990201968F7399276F
:100C000020919A0230919B028217930771F0E09134
:100C10009802F0919902E85AFD4F4083909399020F
:100C20008093980202C08091C600FF91EF919F913E
:100C30008F914F913F912F910F900FBE0F901F906A
:100C4000189582EF91E00E944F05892B11F00C94CA
:100C5000E60508951F920F920FB60F9211242F935D
:100C60003F938F939F93EF93FF9320915402309182
:100C7000550280915602909157022817390731F496
:100C80008091C1008F7D8093C10014C0E091560215
:100C9000F0915702EC5EFD4F2081809156029091B9
:100CA000570201968F7399279093570280935602AB
:100CB0002093C600FF91EF919F918F913F912F91CB
:100CC0000F900FBE0F901F901895CF92DF92EF926A
:100CD000FF92CF93DF93EC016A017B01411581EE16
:100CE000580761057105F9F0EC89FD8981E090E014
:100CF00008A002C0880F991F0A94E2F7808360E081
:100D000079E08DE390E0A70196010E943E08215012
:100D10003109410951095695479537952795211570
:100D200080E1380798F0EC89FD89108260E874E86A
:100D30008EE190E0A70196010E943E082150310902
:100D4000410951095695479537952795E889F989BD
:100D50003083EA89FB89208319A2EE89FF894081CB
:100D600081E090E09C010C8C02C0220F331F0A949A
:100D7000E2F7422B4083EE89FF8940819C010D8C74
:100D800002C0220F331F0A94E2F7422B4083EE8900
:100D9000FF8940819C010E8C02C0220F331F0A94F0
:100DA000E2F7422B4083EE89FF8920810F8C02C03D
:100DB000880F991F0A94E2F7809582238083DF9140
:100DC000CF91FF90EF90DF90CF9008951092F501B2
:100DD0001092F40188EE93E0A0E0B0E08093F60179
:100DE0009093F701A093F801B093F9018CE591E09D
:100DF0009093F3018093F20188E592E09093FF01D4
:100E00008093FE0184E192E09093010280930002BE
:100E100085EC90E0909303028093020284EC90E0D2
:100E2000909305028093040280EC90E09093070277
:100E30008093060281EC90E090930902809308026F
:100E400082EC90E090930B0280930A0286EC90E093
:100E500090930D0280930C0284E080930E0283E055
:100E600080930F0287E08093100285E08093110247
:100E700081E08093120208950E947C040E94660320
:100E8000C1E2D6E00E948C032097E1F30E94210684
:100E9000F9CFCF92DF92EF92FF920F931F93CF93F0
:100EA000DF936C017A01EB01E60EF71E00E010E023
:100EB000CE15DF0561F06991D601ED91FC910190AD
:100EC000F081E02DC6010995080F191FF1CFC80167
:100ED000DF91CF911F910F91FF90EF90DF90CF9016
:100EE00008956115710581F0DB010D900020E9F78F
:100EF000AD0141505109461B570BDC01ED91FC91AE
:100F00000280F381E02D099480E090E008950C9434
:100F10007107DC01ED91FC910190F081E02D0994C5
:100F20008F929F92AF92BF92CF92DF92EF92FF92F9
:100F30000F931F93CF93DF93CDB7DEB7A1970FB673
:100F4000F894DEBF0FBECDBF7C01C42EE52FCB01D0
:100F5000D22E19A221E02D1510F02AE0D22E8E01FA
:100F60000F5D1F4F8D2C912CA12CB12C6C2D7E2F41
:100F7000A50194010E943E088C2DD29E8019112457
:100F8000015011098A3014F4805D01C0895CF801B8
:100F90008083211531054105510521F0C22EE32F33
:100FA000CA01E4CFB801C7010E947107A1960FB62C
:100FB000F894DEBF0FBECDBFDF91CF911F910F918F
:100FC000FF90EF90DF90CF90BF90AF909F908F9069
:100FD0000895CF92DF92EF92FF920F931F93CF93DA
:100FE000DF93EC016A017B012115310579F4E88179
:100FF000F9810190F081E02D642FDF91CF911F9155
:101000000F91FF90EF90DF90CF9009942A30310537
:10101000E9F477FF1AC06DE20E9489078C0144272A
:101020005527BA014C195D096E097F092AE0CE01E6
:101030000E949007800F911FDF91CF911F910F9118
:10104000FF90EF90DF90CF9008952AE0B701A601BE
:10105000CE01DF91CF911F910F91FF90EF90DF9024
:10106000CF900C9490079A01AB01662757FD6095CD
:10107000762F0C94E907F8940C946608A1E21A2ED6
:10108000AA1BBB1BFD010DC0AA1FBB1FEE1FFF1F2C
:10109000A217B307E407F50720F0A21BB30BE40B7C
:1010A000F50B661F771F881F991F1A9469F76095C3
:1010B0007095809590959B01AC01BD01CF0108957D
:1010C000EE0FFF1F0590F491E02D0994F894FFCFE7
:1010D00000009C0220005B57525D0A004F535632BD
:1010E0000056454E540046494E45004D414E440081
:1010F0000008040C020A060E0109050D030B070F78
:1011000000000000610288001102000000001D01C3
:10111000AE00F101000000006501EA00F1010000ED
:101120000000B2011101F10100000000A90549070A
:081130004F057C0561059E05D9
:00000001FF
