:100000000C9462000C948A000C948A000C948A0070
:100010000C948A000C948A000C948C000C948A0036
:100020000C948A000C948A000C948A000C948A0028
:100030000C948A000C948A000C948A000C948A0018
:100040000C942F010C948A000C9456030C94990381
:100050000C948A000C948A000C948A000C948A00F8
:100060000C948A000C948A00000000070002010032
:100070000003040600000000000000000102040864
:100080001020408001020408102001020408102002
:10009000040404040404040402020202020203032E
:1000A00003030303000000002300260029000000D2
:1000B0000000250028002B0000000000240027007D
:1000C0002A00550411241FBECFEFD4E0DEBFCDBF00
:1000D00011E0A0E0B1E0EEEAFBE002C005900D9275
:1000E000A432B107D9F711E0A4E2B1E001C01D923A
:1000F000A73DB107E1F710E0C4ECD0E004C02297BF
:10010000FE010E94D105C23CD107C9F70E94AB0491
:100110000C94AA050C9400001F920F920FB60F9238
:1001200011248F939F93809106019091070101976D
:1001300090930701809306019F918F910F900FBEBE
:100140000F901F90189583B7817F866083BF83B718
:10015000816083BF83B7816083BF889583B78E7FBB
:1001600083BF83B78E7F83BFE4E6F0E08081807138
:100170008083089540E052EC61E070E08DE291E010
:100180000E94D40368E071E08DE291E00E94F604E1
:1001900064E670E080E090E00E949C0161E08DE008
:1001A0000E94260284B7877F84BFE0E6F0E080816A
:1001B0008861808381E28083808180648083089568
:1001C000CF93DF93809106019091070118161906CD
:1001D0000CF441C061E08DE00E945F0264EF71E0C9
:1001E00080E090E00E949C018AE00E949502EC0170
:1001F0008BE00E949502880F991FC80FD91F8CE0D1
:100200000E949502880F991F880F991FC80FD91F48
:100210006EE071E08DE291E00E94F60440E150E072
:10022000BE018DE291E00E94A2056CE071E08DE2DA
:1002300091E00E94F60460E08DE00E945F0264E6B7
:1002400070E080E090E00E949C0186E090E0909356
:10025000070180930601DF91CF910C94A3001F92B8
:100260000F920FB60F9211242F933F938F939F936A
:10027000AF93BF938091250190912601A091270112
:10028000B09128013091240123E0230F2D3720F471
:100290000196A11DB11D05C026E8230F0296A11DE0
:1002A000B11D209324018093250190932601A093F2
:1002B0002701B09328018091290190912A01A091F2
:1002C0002B01B0912C010196A11DB11D8093290134
:1002D00090932A01A0932B01B0932C01BF91AF9171
:1002E0009F918F913F912F910F900FBE0F901F9074
:1002F00018953FB7F8948091290190912A01A09117
:100300002B01B0912C0126B5A89B05C02F3F19F0F9
:100310000196A11DB11D3FBF6627782F892F9A2F07
:10032000620F711D811D911D42E0660F771F881FAE
:10033000991F4A95D1F70895CF92DF92EF92FF92DD
:10034000CF93DF936B017C010E947901EB01C11413
:10035000D104E104F10479F00E9479016C1B7D0B5A
:10036000683E7340A0F381E0C81AD108E108F108A3
:10037000C851DC4FECCFDF91CF91FF90EF90DF9031
:10038000CF900895789484B5826084BD84B58160EF
:1003900084BD85B5826085BD85B5816085BDEEE68D
:1003A000F0E0808181608083E1E8F0E0108280816C
:1003B00082608083808181608083E0E8F0E08081DA
:1003C00081608083E1EBF0E0808184608083E0EBFA
:1003D000F0E0808181608083EAE7F0E080818460E2
:1003E000808380818260808380818160808380813E
:1003F000806880831092C1000895833081F028F4D2
:10040000813099F08230A1F008958630A9F08730CC
:10041000B9F08430D1F4809180008F7D03C0809149
:1004200080008F7780938000089584B58F7702C015
:1004300084B58F7D84BD08958091B0008F7703C00F
:100440008091B0008F7D8093B0000895CF93DF93AB
:1004500090E0FC01E458FF4F2491FC01E057FF4F6E
:100460008491882349F190E0880F991FFC01E8549A
:10047000FF4FA591B49182559F4FFC01C591D49136
:100480009FB7611108C0F8948C91209582238C93BA
:10049000888182230AC0623051F4F8948C91322F03
:1004A000309583238C938881822B888304C0F894B1
:1004B0008C91822B8C939FBFDF91CF9108950F93E6
:1004C0001F93CF93DF931F92CDB7DEB7282F30E075
:1004D000F901E859FF4F8491F901E458FF4F149155
:1004E000F901E057FF4F04910023C9F0882321F060
:1004F00069830E94FD016981E02FF0E0EE0FFF1F8C
:10050000E255FF4FA591B4919FB7F8948C9161117A
:1005100003C01095812301C0812B8C939FBF0F9046
:10052000DF91CF911F910F910895CF93DF93282FE3
:1005300030E0F901E859FF4F8491F901E458FF4F89
:10054000D491F901E057FF4FC491CC2391F0811170
:100550000E94FD01EC2FF0E0EE0FFF1FEC55FF4F66
:10056000A591B4912C912D2381E090E021F480E0BD
:1005700002C080E090E0DF91CF910895FC012485D6
:100580003585F901E05CFF4F80819181F901EE5BD7
:10059000FF4F20813181821B930B8F739927089520
:1005A000FC0184859585FC01E05CFF4F4081518111
:1005B000FC01EE5BFF4F208131814217530741F070
:1005C0000190F081E02DE80FF91F808190E00895FF
:1005D0008FEF9FEF0895FC0184859585FC01E05C19
:1005E000FF4F40815181FC01EE5BFF4F2081318143
:1005F0004217530779F0A081B181A80FB91F8C91E0
:10060000208131812F5F3F4F2F7333273183208328
:1006100090E008958FEF9FEF0895FC0181A188235A
:1006200029F0A489B5898C9186FFFBCF11A208958A
:10063000CF93DF93FC0126853785D901A05CBF4F9E
:100640008D919C91119701968F739927E901CE5B4B
:10065000DF4F4881598184179507D9F30D90BC91DC
:10066000A02DA20FB31F6C93A685B785A05CBF4FCA
:1006700011969C938E93A689B7892C9181E090E086
:10068000078C02C0880F991F0A94E2F7282B2C933D
:1006900081E081A30488F589E02D808180648083D6
:1006A00081E090E0DF91CF91089508951F920F921D
:1006B0000FB60F9211242F933F934F938F939F93D5
:1006C000EF93FF938091C00082FD1CC04091C60053
:1006D0008091D3019091D40101968F739927209135
:1006E000D5013091D6018217930771F0E091D301C3
:1006F000F091D401ED56FE4F40839093D401809346
:10070000D30102C08091C600FF91EF919F918F911C
:100710004F913F912F910F900FBE0F901F90189502
:100720008DE291E00E94BE02892B11F00C945503DA
:1007300008951F920F920FB60F9211242F933F939B
:100740008F939F93EF93FF9320918F0130919001AE
:1007500080919101909192012817390731F480918D
:10076000C1008F7D8093C10014C0E0919101F09190
:100770009201E15BFE4F2081809191019091920165
:1007800001968F7399279093920180939101209302
:10079000C600FF91EF919F918F913F912F910F9004
:1007A0000FBE0F901F901895CF92DF92EF92FF929D
:1007B000CF93DF93EC016A017B01411581EE58076D
:1007C00061057105F9F0EC89FD8981E090E008A0F0
:1007D00002C0880F991F0A94E2F7808360E079E0F5
:1007E0008DE390E0A70196010E94AD0521503109EB
:1007F000410951095695479537952795211580E16F
:10080000380798F0EC89FD89108260E874E88EE181
:1008100090E0A70196010E94AD05215031094109E0
:1008200051095695479537952795E889F989308379
:10083000EA89FB89208319A2EE89FF89408181E042
:1008400090E09C010C8C02C0220F331F0A94E2F747
:10085000422B4083EE89FF8940819C010D8C02C0B0
:10086000220F331F0A94E2F7422B4083EE89FF895F
:1008700040819C010E8C02C0220F331F0A94E2F7C4
:10088000422B4083EE89FF8920810F8C02C0880FA4
:10089000991F0A94E2F7809582238083DF91CF919C
:1008A000FF90EF90DF90CF9008951092300110925A
:1008B0002F0188EE93E0A0E0B0E0809331019093A7
:1008C0003201A0933301B093340188E191E0909319
:1008D0002E0180932D0183E991E090933A0180935A
:1008E00039018FE491E090933C0180933B0185ECCA
:1008F00090E090933E0180933D0184EC90E09093D2
:10090000400180933F0180EC90E0909342018093FE
:10091000410181EC90E0909344018093430182EC8B
:1009200090E0909346018093450186EC90E090938F
:1009300048018093470184E08093490183E08093DC
:100940004A0187E080934B0185E080934C0181E070
:1009500080934D0108950E94C2010E94BA00C0E92F
:10096000D3E00E94E0002097E1F30E949003F9CFCA
:10097000CF92DF92EF92FF920F931F93CF93DF936B
:100980006C017A01EB01E60EF71E00E010E0CE15D7
:10099000DF0561F06991D601ED91FC910190F08144
:1009A000E02DC6010995080F191FF1CFC801DF918D
:1009B000CF911F910F91FF90EF90DF90CF9008950E
:1009C0006115710581F0DB010D900020E9F7AD01A3
:1009D00041505109461B570BDC01ED91FC910280FF
:1009E000F381E02D099480E090E008950C94E004F8
:1009F000DC01ED91FC910190F081E02D09948F9242
:100A00009F92AF92BF92CF92DF92EF92FF920F939D
:100A10001F93CF93DF93CDB7DEB7A1970FB6F894AE
:100A2000DEBF0FBECDBF7C01C42EE52FCB01D22E81
:100A300019A221E02D1510F02AE0D22E8E010F5DB3
:100A40001F4F8D2C912CA12CB12C6C2D7E2FA5012C
:100A500094010E94AD058C2DD29E80191124015065
:100A600011098A3014F4805D01C0895CF80180832B
:100A7000211531054105510521F0C22EE32FCA0190
:100A8000E4CFB801C7010E94E004A1960FB6F89424
:100A9000DEBF0FBECDBFDF91CF911F910F91FF90B1
:100AA000EF90DF90CF90BF90AF909F908F90089580
:100AB000CF92DF92EF92FF920F931F93CF93DF932A
:100AC000EC016A017B012115310579F4E881F98196
:100AD0000190F081E02D642FDF91CF911F910F9154
:100AE000FF90EF90DF90CF9009942A303105E9F420
:100AF00077FF1AC06DE20E94F8048C014427552745
:100B0000BA014C195D096E097F092AE0CE010E94E5
:100B1000FF04800F911FDF91CF911F910F91FF90E4
:100B2000EF90DF90CF9008952AE0B701A601CE01A3
:100B3000DF91CF911F910F91FF90EF90DF90CF90B9
:100B40000C94FF049A01AB01662757FD6095762F40
:100B50000C945805F8940C94D505A1E21A2EAA1B02
:100B6000BB1BFD010DC0AA1FBB1FEE1FFF1FA2175D
:100B7000B307E407F50720F0A21BB30BE40BF50B5A
:100B8000661F771F881F991F1A9469F760957095E3
:100B9000809590959B01AC01BD01CF010895EE0FAA
:0E0BA000FF1F0590F491E02D0994F894FFCF0B
:100BAE000000D701200001005B57535D0A00575328
:100BBE0050530900000000001803B804BE02EB02F7
:040BCE00D0020D0341
:00000001FF
